:020000040800F2
:100000005808002021200008F10F0008F30F000815
:10001000F70F0008FB0F0008FF0F000800000000AA
:1000200000000000000000000000000003100008B5
:100030000510000800000000071000080910000863
:100040003B2000083B2000083B2000083B20000824
:100050003B2000083B2000083B2000083B20000814
:100060003B2000083B2000083B2000083B20000804
:100070003B2000083B2000083B2000083B200008F4
:100080003B2000083B2000083B2000083B200008E4
:100090003B2000083B2000083B2000083B200008D4
:1000A0003B2000083B2000083B2000083B200008C4
:1000B000210F00083B2000083B2000083B200008DF
:1000C0003B2000083B2000083B2000083B200008A4
:1000D0003B200008971F00083B2000083B20000839
:1000E0003B2000083B2000083B20000800F002F8FD
:1000F00000F03FF80AA090E8000C82448344AAF183
:100100000107DA4501D100F034F8AFF2090EBAE880
:100110000F0013F0010F18BFFB1A43F0010318473B
:10012000D8660000F8660000103A24BF78C878C18D
:10013000FAD8520724BF30C830C144BF04680C60ED
:10014000704700000023002400250026103A28BF35
:1001500078C1FBD8520728BF30C148BF0B60704739
:10016000642903F0BD84002070471FB51FBD10B582
:1001700010BD03F07DFD1146FFF7F7FF00F011FE03
:1001800003F09BFD03B4FFF7F2FF03BC01F0A8FEF0
:1001900010B5FEA20121092001F012FBFDA20321EE
:1001A000092001F00DFBFDA20521092001F008FB4B
:1001B000FCA20721092001F003FBFCA200214A2038
:1001C00001F0FEFA48220221104601F091FA4D2278
:1001D0000221662001F08CFA2E220421452001F034
:1001E00087FA2E220621452001F082FA43220421BB
:1001F0005A2001F07DFA252206215A2001F078FAD2
:1002000010BD10B5EB48006808B9012000E00020DF
:10021000E84908604FF4FA7001F035FEE648D0F87E
:10022000B80108B9012000E00020E24908604FF45D
:10023000FA7001F028FE10BD10B5DE48001D006800
:1002400008B9012000E00020DA49091D0860642097
:1002500001F019FED848D0F8BC0108B9012000E02F
:100260000020D449091D0860642001F00CFED2482A
:10027000D0F8BC0108B9012000E00020CD49091DDB
:100280000860642001F0FFFDCB48D0F8BC0108B93C
:10029000012000E00020C749091D0860642001F02A
:1002A000F2FD0020C449C1F8BC0110BD10B5C14821
:1002B0000838006808B9012000E00020BD4908396D
:1002C0000860BD48D0F8B40108B9012000E0002062
:1002D000B849091F0860C82001F0D5FDB648D0F81C
:1002E000B00108B9012000E00020B24908390860D7
:1002F000B148D0F8B40108B9012000E00020AD49B0
:10030000091F0860C82001F0BEFD10BD08B5AB484C
:100310000078401CA94908701E2001F0B4FDA748D0
:100320000078642190FBF1F201FB120000287DD1DE
:10033000A2490870A2480078A24908701020022340
:1003400000909F4802780421412001F0F7F9102025
:10035000022300909C4802780621412001F0EEF92A
:10036000984800780F280FD1002098490880102065
:10037000022300900846028800216D2001F0DEF97A
:100380000021934803F026FB8E4800780F2810DAEE
:1003900022208E49088010200223009008460288FF
:1003A00000216D2001F0CAF940F24C41884803F069
:1003B00011FB844800780F2814DD82480078142847
:1003C00010DD252081490880102002230090084676
:1003D000028800216D2001F0B1F94FF496617C484C
:1003E00003F0F8FA77480078142814DD754800788F
:1003F000192810DD2720754908801020022300905D
:100400000846028800216D2001F098F940F2E2418F
:100410006F4803F0DFFA6B480078192816DD694849
:1004200000781E2812DD2820684900E03CE00880A2
:100430001020022300900846028800216D2001F060
:100440007DF940F21451624803F0C4FA5D48007827
:100450001E2814DD5B480078232810DD2B205B4923
:1004600008801020022300900846028800216D2099
:1004700001F064F940F26451554803F0ABFA514879
:100480000078232810DD2C205049088010200223FA
:1004900000900846028800216D2001F04FF940F2DB
:1004A0008C514B4803F096FA08BD2DE9F8434021E2
:1004B000484801F036FF90B9782001F0E4FC402173
:1004C000444801F02EFF50B943480078401C42498F
:1004D000087008460078032801DD0020087080219C
:1004E0003C4801F01EFF00287ED1782001F0CBFCB3
:1004F0008021384801F015FF0028F5D13748006801
:100500000A3036490860084600683C280CD20121B0
:10051000880702F0C7FF03203149087000203149E5
:1005200048702E48007888702C4800683C2814D900
:100530002A480068782810D20121880702F0B2FF0B
:100540000320274908700120264948702348006885
:10055000C0F17800C0F13C0088702048006878281D
:1005600044D91E480068B42840D20121880702F00F
:1005700099FF03201A49087002201A494870174849
:100580000068C0F1B400C0F13C002EE04D6F64651E
:10059000203A200054696D65203A200054656D7042
:1005A000203A200077617465723A200053706565C7
:1005B000643A0000B8812142008021422A000020D4
:1005C00009000020280000200A000020120000205E
:1005D00000040040000C01400D0000201800002025
:1005E0001C0000201F00002057E08870F7480068BA
:1005F0003C2804D078280FD0B42826D119E0012156
:10060000880702F04FFF0320F14908700120F149EB
:1006100048700020887018E00121880702F042FF2E
:100620000320EB4908700220EA49487000208870D6
:100630000BE00121880702F035FF0320E449087030
:10064000E44948700020887000BF00BFDF480068A0
:10065000B4280AD900214FF0804002F023FF002087
:10066000DA490860DB494870887010200090D9484A
:10067000427802231946362001F060F810200090DD
:10068000D448827802231946542001F057F8D14803
:1006900082784178D0A003F0E3F9D5480078C8B952
:1006A000D4480078B0B90120D24908700020D2495E
:1006B00008801020022300900846028800216D2047
:1006C00001F03CF8CC480188CC4803F083F9CCA079
:1006D00003F0C6F9C6480078012822D1C548007841
:1006E00001281ED10220C34908701E20C24908807B
:1006F0001020022300900846028800216D2001F09E
:100700001DF8BD48008800EB400202EB00104FF6D8
:10071000FF7202EA4001B94803F05CF9BAA003F0A5
:100720009FF9B348007802281FD1B2480078022808
:100730001BD10320AF4908703C20AF49088010202E
:10074000022300900846028800216D2000F0F6FF89
:10075000A9480088C0EBC00000EB400081B2A74868
:1007600003F038F9AAA003F07BF9A1480078032828
:1007700026D1A0480078032822D100209D49087086
:100780005A209D49088010200223009008460288C4
:1007900000216D2000F0D2FF9748008803F06DFB28
:1007A000054600229C4B03F07BFB074603F038FB19
:1007B00084B22146914803F00DF998A003F050F956
:1007C000BDE8F88310B51021964801F0AAFD9649BE
:1007D00008700846007868B9002094490860012034
:1007E0007B4908700121800702F05CFE90A003F0B5
:1007F00037F91CE076480078022804D1012140072F
:1008000002F050FE0DE072480078032804D1012167
:10081000880702F047FE04E000214FF0804002F01C
:1008200041FE01208149086084A003F019F910BD40
:1008300008B58548007801284DD1844801F006FAB2
:10084000102000908148827802230421412000F08A
:1008500075FF102000907D48027802230621412078
:1008600000F06CFF52217A4801F052FF642001F041
:100870000AFB76488178764801F04AFF4FF47A7097
:1008800001F001FB71480178714801F041FF6420DB
:1008900001F0F9FA53216E4801F03AFF642001F0AB
:1008A000F2FA6C480078012815D16B4800786B4942
:1008B0000978884204DD40F2DC51504803F08AF8A0
:1008C0006548007866490978884204DA40F24C416C
:1008D0004A4803F07FF808BD10B50A2001F0D3FAAA
:1008E00060480078401C5F490870084600780F286F
:1008F00016D1002008705C480078401C5A490870E6
:1009000008460078C8280BD10020087001204E4905
:100910000870FFF757FFFFF78BFF00204A49087068
:1009200010BD08B551480078401C50490870084671
:100930000078642190FBF1F201FB1200C0B943483A
:1009400001F084F9102000904048827802230421AD
:10095000412000F0F3FE102000903C480278022372
:100960000621412000F0EAFE3848807840490870AE
:100970003F4800780F2802DA01203E4908703C48C1
:100980000078232802DD02203A49087038480078B0
:100990000F2806DD36480078232802DA0020354982
:1009A00008703448007820B1012869D0022868D145
:1009B00098E0322001F067FA2F48007828B12F48DC
:1009C000008832302D49088061E05BE0180000208B
:1009D0001C0000201F000020B6A8CAB1CAB1BCE4A8
:1009E000A3BA202564482C25646D696E0D0A0000A9
:1009F0000D0000200E000020120000200004004026
:100A0000B9D8BBFA0D0A0000D2BBB5B50D0A00007B
:100A1000B6FEB5B50D0A000000002F40C8FDB5B503
:100A20000D0A0000000801402D000020B481214281
:100A3000CFD6D4DACEDEC8CB0D0A0000CFD6D4DABA
:100A4000D3D0C8CB0D0A00002200002004000020F3
:100A50000038014023000020090000201D00002074
:100A60001E0000202B0000202C0000202A00002067
:100A7000280000202700002026000020240000205D
:100A80002BE035E0FC4800883238FB490880FA4802
:100A90000188FA4802F09EFFF7480088B0F5AF6F72
:100AA0000BDD4FF4AF61F54802F094FF41F288305E
:100AB00001F0E9F90020F2490870EF48008858B9C0
:100AC000ED480188ED4802F085FF41F2883001F0E1
:100AD000DAF90120EA4908700AE00021E74802F04B
:100AE00079FF05E040F2DC51E44802F073FF00BFFB
:100AF00000BF08BD2DE9F84FE248008800F400402F
:100B000000287CD0DF4890F800B04FF0000A09E0E0
:100B1000DD4810F80A00DD4901F80A000AF1010079
:100B200000F0FF0ADA45F3DB10200090D748027886
:100B300002230021362000F001FED44800780B2863
:100B40000CD2DFE800F099060C19232F606C909608
:100B50001F004FF49661C94802F03CFF8CE0002171
:100B6000C64802F037FF00214FF0804002F09AFCA7
:100B70000020C74908707FE0FFF75AFE0120C449F2
:100B8000087079E00020C249087075E0C14800781B
:100B9000401CC049087008460078032801DD002089
:100BA000087069E0B948407828B90020BA4908803F
:100BB000BA4908801FE0B5484078B849088010203D
:100BC000022300900846028800216D2000F0B6FD47
:100BD000AE49487803F051F980460022B04B03F04B
:100BE0005FF906460022AF4B03F072F8044603F0AB
:100BF00017F9A9490880A8480188A04800E041E009
:100C000002F0E8FE38E00220A74908709F484078CB
:100C1000A64908709D488078A54908702CE00220FC
:100C2000A14908709948807898494978C1EB011129
:100C300000EB81009F4908601020009093484278A3
:100C400002231946362000F079FD102000908F48CD
:100C5000827802231946542000F070FD0121880794
:100C600002F020FC08E001208949087092490870D0
:100C700002E0FFF756FE00BF00BF00208149088058
:100C8000FFF7DAFABDE8F88F08B520218B4801F0AC
:100C900048FB90B9642001F0F6F82021874801F064
:100CA00040FB50B986480078401C854908700846CA
:100CB0000078022801DD00200870814800780028B3
:100CC00038D18048007860B901207E4908707EA044
:100CD00002F0C6FEFFF795FA7FA20021084600F059
:100CE0006FFD7E4800F0B2FF012823D11020009054
:100CF0007A48027802230621372000F01FFD1020D9
:100D0000009076484278012306214B2000F016FD22
:100D1000102000907148827802230421372000F0CF
:100D20000DFD102000906D48C278012304214B2056
:100D300000F004FD62480078012812D16148007873
:100D400001280CD102205F49087065A200210846E5
:100D500000F036FDFFF755FA62A002F081FEFFF7C2
:100D6000D5FA57480078022812D156480078022850
:100D70000CD10020534908705DA20021084600F004
:100D80001FFDFFF73EFA5BA002F06AFEFFF7C9FD08
:100D900008BD10B5FFF778FFFFF787FBFFF7AAFE46
:100DA00010BD08B500F0A1F901F030F84FF4A060D3
:100DB00001F056F942F20F7141F61F4000F09CFF1E
:100DC00000214FF0804002F06DFB002140F2CF7017
:100DD00000F0C1FF0121294802F064FB00212748EF
:100DE00002F0F8FD4FF4E13001F089F800F0FEF96F
:100DF00000F0AEFA00F00FFCFFF7CAF900F081FA3C
:100E00004FF47A7001F03FF8344800F01FFF0128DA
:100E100025D1102000903148027802230621372086
:100E200000F08CFC102000902C4842780123062111
:100E30004B2000F083FC1020009028488278022389
:100E40000421372000F07AFC102000902348C2785B
:100E5000012304214B2000F071FC00F02FFA4F22F7
:100E60000621692000F044FC4B2206216E2000F090
:100E70003FFC00F0F6F952E024000020000400409E
:100E800026000020500000203001002068000020D3
:100E9000220000200D00002014000020120000207D
:100EA0000000F83F00C092401C0000201D00002000
:100EB0001E0000201800002023000020000C01402C
:100EC0000B0000200C000020B7C7D6C7C4DCC4A3A9
:100ED000CABD0D0A00000000300000000400002020
:100EE00031000000D6C7C4DCC4A3CABD0D0A00008F
:100EF00032000000CBAFC3DFC4A3CABD0D0A00009F
:100F000000F013FA012802D100F0D8F901E000F056
:100F1000C3F9FFF73EFF4FF4FA7000F0B4FFEFE7BC
:100F200010B50121880702F086FD40B10121880734
:100F300002F092FD2A480068401C294908602948AF
:100F40000078012811D1264800681E280DD1002004
:100F5000234908600021244802F03CFD00214FF0A5
:100F6000804002F09FFAFFF7A1F91E48007802289E
:100F700018D11E480068C0EB00100121C1EB8000B1
:100F80001749096888420DD10020154908600021E1
:100F9000154802F01FFDFFF789F900214FF080404E
:100FA00002F080FA0F480078032818D10F48006833
:100FB000C0EB00100121C1EB80000949096888429B
:100FC0000DD10020064908600021074802F002FD0B
:100FD000FFF76CF900214FF0804002F063FA10BD7A
:100FE000000000201C000020000400401800002029
:100FF000704700BFFEE700BFFEE700BFFEE700BF8F
:10100000FEE7704770477047704700000CB500203E
:10101000019000906C48006840F480306A49086094
:1010200000BF6948006800F4003000900198401C3F
:101030000190009818B90198B0F5A06FF1D16248FD
:10104000006800F4003010B10120009001E00020A1
:1010500000900098012843D15C48006840F01000DF
:101060005A4908600846006820F0030008600846F6
:10107000006840F0020008605348406852494860E8
:101080000846406848600846406840F48060486010
:101090000846406820F47C1048600846406840F4E8
:1010A000E81048600846006840F08070086000BFA3
:1010B0004548006800F000700028F9D042484068B8
:1010C00020F00300404948600846406840F00200B4
:1010D000486000BF3C48406800F00C000828F9D187
:1010E0000CBD10B5FFF792FF10BD10B53648006873
:1010F00040F001003449086008464068344908401F
:101100003149486008460068324908402E49086065
:101110000846006820F4802008600846406820F4F3
:10112000FE0048604FF41F008860FFF7DAFF4FF0C1
:1011300000602949086010BD10B500210020002280
:10114000214B5B6803F00C0121B1042906D008296A
:1011500028D107E0214B224C236027E01F4B204C75
:10116000236023E0184B5B6803F47010164B5B6838
:1011700003F48032022303EB904022B9194B43431E
:10118000174C23600DE0104B5B6803F4003323B170
:10119000144B4343124C236003E0104B4343104C69
:1011A000236003E00D4B0E4C236000BF00BF064BD5
:1011B0005B68C3F303130C4CE15C094B1B68CB4029
:1011C000074C236010BD00000010024000200240C8
:1011D0000000FFF8FFFFF6FE08ED00E000127A00C5
:1011E0003000002000093D003400002008B5012136
:1011F000182001F0C3FC4FF40050ADF8000010209F
:101200008DF8030003208DF8020069464A4800F07B
:10121000F5FF4FF40051484801F09DF84FF470403D
:10122000ADF8000010208DF8030003208DF80200B7
:101230006946424800F0E2FF4FF480513F4801F018
:101240008CF84FF400513D4801F087F84FF480418D
:101250003A4801F082F84FF40041384801F07DF837
:1012600008BD10B50120364908603649C1F8B801FB
:101270003349083908604FF4FA7000F004FE00208A
:101280002F490860091F08602E49C1F8B4014FF4C6
:10129000FA7000F0F8FD10BD10B50120284908399A
:1012A00008604FF4FA7000F0EEFD00202549C1F807
:1012B000B4014FF4FA7000F0E6FD10BD10B5012046
:1012C0001F49091F08604FF4FA7000F0DCFD002090
:1012D0001C49C1F8B8014FF4FA7000F0D4FD10BDFC
:1012E00010B50120164908604FF4FA7000F0CBFDEC
:1012F00000201449C1F8BC014FF4FA7000F0C3FD9E
:1013000010BD08B50121042001F038FC1020ADF813
:10131000000028208DF8030069460B4800F06EFF9E
:101320001021094801F017F808BD08480068012895
:1013300000D170470020FCE700100140000C014084
:10134000BC8121420080214200080140100121425D
:1013500008B5E020ADF8000048208DF8030069468C
:10136000354800F04BFF0120ADF8000028208DF833
:1013700003006946314800F041FF08BD10B504463E
:1013800014B101202E4908702D480078002837D06C
:1013900010212C4800F0C5FF78B10821294800F041
:1013A000C0FF50B10421274800F0BBFF28B1012144
:1013B000224800F0B6FF012822D10A2000F063FD88
:1013C00000201F49087010211E4800F0AAFF08B92C
:1013D000012010BD08211B4800F0A3FF08B902201E
:1013E000F7E70421174800F09CFF08B90320F0E755
:1013F0000121124800F095FF01281BD10420E8E7E5
:101400001021104800F08DFF012813D108210D484C
:1014100000F087FF01280DD104210A4800F081FF68
:10142000012807D10121054800F07BFF10B90120F8
:10143000034908700020CCE7000C0140000801407F
:10144000440000200018014008B54FF44040ADF8BA
:10145000000010208DF8030003208DF8020069467B
:10146000FB4800F0CBFE08BD10B50120F94908602B
:10147000F949C1F8BC0100F0E2FC0020F549086020
:10148000012000F0DCFC0020F349C1F8BC0110BDD4
:1014900010B50020EF49091D0860EF49C1F8B801F7
:1014A000012000F0CCFC0120EA49091D0860EA494E
:1014B000C1F8B80100F0C3FC10BD70B504460025AA
:1014C00017E004F0800018B10120E249086002E052
:1014D0000020E04908600120DE49091D086000F095
:1014E000AEFC0020DC49C1F8BC016006040E681C9B
:1014F000C5B2082DE5DB0120D6490860D649C1F800
:10150000BC0100F09CFC0020D249091D086070BDA0
:1015100010B50446FFF7A8FF7820FFF7CEFF402064
:10152000FFF7CBFF2046FFF7C8FFFFF7B1FF10BD65
:1015300010B50446FFF798FF7820FFF7BEFF0020A4
:10154000FFF7BBFF2046FFF7B8FFFFF7A1FF10BD75
:1015500070B504460D4605F1B001C8B2FFF7E8FFCB
:10156000102141EA1410FFF7E3FF04F00F0141F0EE
:101570000100FFF7DDFF70BD70B50646002415E0E1
:1015800004F1B001C8B2FFF7D3FF0120FFF7D0FF8D
:101590001020FFF7CDFF002504E03046FFF7B8FF2D
:1015A000681CC5B2802DF8DB601CC4B2082CE7DBD8
:1015B00070BD70B5002415E004F1B001C8B2FFF7AA
:1015C000B7FF0120FFF7B4FF1020FFF7B1FF0025A0
:1015D00004E00020FFF79CFF681CC5B2802DF8DBFB
:1015E000601CC4B2082CE7DB70BD10B58D20FFF77E
:1015F0009FFF1020FFF79CFFAE20FFF799FF10BD63
:1016000010B58D20FFF794FF1420FFF791FFAF2056
:10161000FFF78EFF10BD10B5FFF716FFC82000F0D2
:1016200032FCAE20FFF784FF0020FFF781FF10207F
:10163000FFF77EFF4020FFF77BFF8120FFF778FF59
:10164000FF20FFF775FFA120FFF772FFC820FFF70B
:101650006FFFA620FFF76CFFA820FFF769FF3F2070
:10166000FFF766FFD320FFF763FF0020FFF760FF5F
:10167000D520FFF75DFF8020FFF75AFFD920FFF745
:1016800057FFF120FFF754FFDA20FFF751FF122038
:10169000FFF74EFFDB20FFF74BFF4020FFF748FF2F
:1016A0002020FFF745FF0220FFF742FF8D20FFF7C4
:1016B0003FFF1420FFF73CFFA420FFF739FFA620CF
:1016C000FFF736FFAF20FFF733FF0020FFF754FF8F
:1016D00000210846FFF73CFF10BD10B5024601206F
:1016E00000E050430B00A1F10104E1B2F9D110BDBB
:1016F0002DE9F04106460C4617464FF0000800253C
:10170000A7F1200000F0FF087F2E02DD0026A01CBC
:10171000C4B2601CC1B23046FFF71AFF002509E0D1
:1017200008EB48014D4A02EB4101485DFFF7F0FE2E
:10173000681CC5B2062DF3DBBDE8F0812DE9FF5F23
:10174000074691461D460E9E4FF0000A002433E0E6
:10175000281B401EC1B20A20FFF7BFFFB9FBF0F003
:101760000A21B0FBF1F201FB1208BAF1000F13D10C
:10177000681EA04210DDB8F1000F0BD1B34606EB96
:10178000DB71491001FB0471C8B220220199FFF7F7
:10179000AFFF0FE04FF0010AB34606EBDB714910D3
:1017A00001FB0471C8B208F13001CAB20199FFF718
:1017B0009FFF00BF601CC4B2AC42C9DBBDE8FF9F05
:1017C0002DE9F0470446884615464FF000090026EB
:1017D000002720E0E85D203800F0FF097E2C04DDC2
:1017E000002408F1010000F0FF0841462046FFF701
:1017F000AFFE002609E009EB4901184A02EB41015E
:10180000885DFFF785FE701CC6B2062EF3DBA01DB7
:10181000C4B2781CC7B2E85D0028DBD1BDE8F08710
:101820002DE9F04706460F46904600250024A146C4
:1018300039E018F809002038C5B2782E02DD0026FC
:10184000781CC7B239463046FFF782FE00240FE00D
:1018500000100140B801224200002242904E0008D0
:1018600004EB0511C14A505CFFF752FE601CC4B284
:10187000082CF5DB781CC1B23046FFF769FE002466
:1018800008E004EB05110831B84A505CFFF740FE50
:10189000601CC4B2082CF4DB06F10800C6B209F1E2
:1018A000010000F0FF0918F809000028C1D1BDE8C7
:1018B000F0872DE9F04180460E46174600247D0151
:1018C00031464046FFF744FE00BF06E0A849485DA8
:1018D000FFF71EFE6D1C601CC4B2102CF6DB701CE2
:1018E000C1B24046FFF734FE002406E0A049485D3F
:1018F000FFF70EFE6D1C601CC4B2102CF6DBBDE8B9
:10190000F0812DE9F04180460E4617460024BD01C6
:1019100031464046FFF71CFE00BF06E09549485D92
:10192000FFF7F6FD6D1C601CC4B2102CF6DB701CBA
:10193000C1B24046FFF70CFE002406E08D49485D29
:10194000FFF7E6FD6D1C601CC4B2102CF6DBB01C6A
:10195000C1B24046FFF7FCFD002406E08549485D22
:10196000FFF7D6FD6D1C601CC4B2102CF6DBF01C1A
:10197000C1B24046FFF7ECFD002406E07D49485D1A
:10198000FFF7C6FD6D1C601CC4B2102CF6DBBDE871
:10199000F0812DE9F04180460E4617460024FD01F6
:1019A00031464046FFF7D4FD00BF06E07249485D6E
:1019B000FFF7AEFD6D1C601CC4B2202CF6DB701C62
:1019C000C1B24046FFF7C4FD002406E06A49485D05
:1019D000FFF79EFD6D1C601CC4B2202CF6DBB01C12
:1019E000C1B24046FFF7B4FD002406E06249485DFD
:1019F000FFF78EFD6D1C601CC4B2202CF6DBF01CC2
:101A0000C1B24046FFF7A4FD002406E05A49485DF4
:101A1000FFF77EFD6D1C601CC4B2202CF6DBBDE818
:101A2000F0812DE9F04180460E46174600BF07EBD6
:101A30004700050231464046FFF78AFD002406E0D4
:101A40004E49485DFFF764FD6D1C601CC4B2802CDC
:101A5000F6DB701CC1B24046FFF77AFD002406E0B9
:101A60004649485DFFF754FD6D1C601CC4B2802CD4
:101A7000F6DBB01CC1B24046FFF76AFD002406E069
:101A80003E49485DFFF744FD6D1C601CC4B2802CCC
:101A9000F6DBF01CC1B24046FFF75AFD002406E019
:101AA0003649485DFFF734FD6D1C601CC4B2802CC4
:101AB000F6DB301DC1B24046FFF74AFD002406E0C8
:101AC0002E49485DFFF724FD6D1C601CC4B2802CBC
:101AD000F6DB701DC1B24046FFF73AFD002406E078
:101AE0002649485DFFF714FD6D1C601CC4B2802CB4
:101AF000F6DBBDE8F08170472DE9F05F06460F4642
:101B000090461C46DDF828A04FF0000BE11704EBCF
:101B10005171C910A4EBC10131B92046E11704EBA2
:101B20005171C1F3C70506E02046E11704EB51717E
:101B3000C910491CCDB23D4614E029463046FFF796
:101B400007FDB1460AE059460BF1010B1AF80100F6
:101B5000FFF7DEFC09F1010000F0FF09C145F2DBEF
:101B6000681CC5B2A542E8DBBDE8F09FB85000088C
:101B700070420008C856000888590008085B000831
:101B800008B50121082000F0F9FF4FF48070ADF88E
:101B9000000010208DF8030003208DF80200694634
:101BA000544800F02BFB4FF48061524800F0D3FB07
:101BB00008BD08B54FF48070ADF8000048208DF8DE
:101BC000030069464B4800F019FB08BD08B54FF407
:101BD0008070ADF8000010208DF8030003208DF810
:101BE00002006946434800F009FB08BD70B50025B6
:101BF000002427E000BF4FF480713E4800F091FBC5
:101C00000028F8D0282000F01AF94FF480713948E4
:101C100000F087FB01280ED100BF4FF480713548DA
:101C200000F07FFB0128F8D0C4F1070101208840B3
:101C3000C0B2054304E0C4F1070101208840854398
:101C4000601CC4B2082CD5DB284670BD10B5044614
:101C5000FFF7BCFF4FF48071264800F07EFB44F292
:101C6000506000F0ECF84FF48071224800F073FBF4
:101C70001E2000F0E4F8FFF79CFF4FF480711D4830
:101C800000F04FFB88BB00BF4FF48071194800F093
:101C900048FB0028F8D000BF4FF48071154800F0D1
:101CA00040FB0128F8D0FFF7A1FF2070FFF79EFF4F
:101CB0006070FFF79BFFA070FFF798FFE070FFF7E1
:101CC00095FF2071FFF782FF4FF48071094800F003
:101CD00042FB207861780844A1780844E178084400
:101CE0002179884202D1012010BD01E00020FBE7EC
:101CF0000020F9E7000C01407FB505460C460121A4
:101D0000084600F048FFADF80850ADF80440002048
:101D1000ADF80A00ADF8060001A94FF0804001F0CF
:101D200065F801221146900701F0D7FB1C208DF8C1
:101D3000000000208DF8010003208DF80200012032
:101D40008DF80300684600F090F900214FF08040C4
:101D500001F0A8FB7FBD30B589B005460C460121D6
:101D6000022000F018FF0121052000F007FF4FF4CA
:101D70000070ADF8200004208DF8230008A9214848
:101D800000F03CFAC020ADF8200018208DF82300A8
:101D900003208DF8220008A91A4800F02FFAADF8A8
:101DA0001850ADF814400020ADF81A00ADF8160038
:101DB00005A9154801F01AF87020ADF804000120BB
:101DC000ADF806000020ADF80A000220ADF80C00C6
:101DD00001A90D4801F089F808210B4801F09BFC8E
:101DE00001A9094801F03FF80821074801F08AFCE1
:101DF0000121054801F056FC0121034801F052FB86
:101E000009B030BD000801400004004010B56FF07B
:101E1000040000F074F92E4800682E49B0FBF1F080
:101E20002D4908700846007800EB4001C1EBC01056
:101E30004FF6FF7101EAC0002849088010BD014635
:101E4000254A12784A434FF0E0235A6100229A61F2
:101E50001A46126942F001021A6100BF4FF0E022F7
:101E6000106900F001021AB100F48032002AF5D0A6
:101E70004FF0E022126922F001024FF0E0231A61D4
:101E800000229A6170470146144A12884A434FF073
:101E9000E0235A6100229A611A46126942F0010257
:101EA0001A6100BF4FF0E022106900F001021AB180
:101EB00000F48032002AF5D04FF0E022126922F0BF
:101EC00001024FF0E0231A6100229A61704700007E
:101ED0003000002000127A00460000204800002058
:101EE000014600BF704700BF494A128802F0400215
:101EF000002AF9D0C2B2464B1B1D1A80704710B59C
:101F000086B00446012144F2040000F037FE4FF48D
:101F10000070ADF8140003208DF8160018208DF81D
:101F2000170005A93B4800F069F94FF48060ADF84F
:101F3000140004208DF8170005A9364800F05EF95A
:101F400025208DF8000003208DF801008DF8020097
:101F500001208DF80300684600F087F80194002006
:101F6000ADF80800ADF80A00ADF80C00ADF81000AF
:101F70000C20ADF80E0001A9254800F0D0FA01228E
:101F800040F22551224800F062FB0121204800F078
:101F900052FB06B010BD10B540F225511C4800F0B0
:101FA0003BFC10B31A4800F0B7FBC4B21A480088D3
:101FB00000F40040C8B91848008800F4804060B1BF
:101FC0000A2C03D000201449088020E01248008821
:101FD00040F400401049088019E00D2C06D10E484D
:101FE000008840F480400C49088010E00A480088CE
:101FF000C0F30D0009490C5407480088401C0649ED
:10200000088008460088C72801DD0020088010BD30
:10201000003801400008014050000020300100203D
:102020000948804709480047FEE7FEE7FEE7FEE76C
:10203000FEE7FEE7FEE7FEE7FEE7FEE704480549A8
:10204000054A064B70470000EB100008ED00000841
:10205000580200205808002058040020580400208E
:1020600031490143314A1160704770B500210023A6
:102070000F22C47804B32D4C246804F4E064C4F542
:10208000E064210AC1F10403CA40447804FA03F170
:102090008478144021430901254C0678A155047821
:1020A00004F01F050124AC4005786D11AD0005F169
:1020B000E025C5F8004109E0047804F01F0501247B
:1020C000AC401C4D0678761145F8264070BD1A4A82
:1020D0000A400243154B1B1F1A60704739B1134A5F
:1020E000121D12680243114B1B1D1A6006E00F4AB5
:1020F000121D126882430D4B1B1D1A607047042885
:1021000008D14FF0E021096941F004014FF0E022CD
:10211000116107E04FF0E021096921F004014FF05F
:10212000E0221161704700000000FA050CED00E0AC
:1021300000E400E080E100E080FFFF1F10B50446EE
:10214000CC48844208D10121042000F031FD002157
:10215000042000F02DFD46E0C748844208D101214B
:10216000082000F025FD0021082000F021FD3AE0C4
:10217000C248844208D10121102000F019FD00213D
:10218000102000F015FD2EE0BD48844208D1012149
:10219000202000F00DFD0021202000F009FD22E0AC
:1021A000B848844208D10121402000F001FD0021FF
:1021B000402000F0FDFC16E0B348844208D1012124
:1021C000802000F0F5FC0021802000F0F1FC0AE006
:1021D000AE48844207D10121801500F0E9FC0021BE
:1021E000A01500F0E5FC10BD10B50121084600F077
:1021F000DFFC0021012000F0DBFC10BD2DE9F041E7
:10220000024600250026002000230024002791F824
:1022100003C00CF00F0591F803C00CF0100CBCF1DA
:10222000000F03D091F802C04CEA050591F800C0F8
:10223000BCF1000F31D0146800202BE04FF0010CEE
:102240000CFA00F3B1F800C00CEA03069E4220D15C
:1022500083004FF00F0C0CFA03F7BC4305FA03FCA4
:102260004CEA040491F803C0BCF1280F06D14FF0EA
:10227000010C0CFA00FCC2F814C00AE091F803C08B
:10228000BCF1480F05D14FF0010C0CFA00FCC2F86C
:1022900010C0401C0828D1D31460B1F800C0BCF1B4
:1022A000FF0F34DD546800202EE000F1080C4FF0E1
:1022B000010808FA0CF3B1F800C00CEA03069E42CC
:1022C00021D183004FF00F0C0CFA03F7BC4305FA41
:1022D00003FC4CEA040491F803C0BCF1280F05D1BB
:1022E00000F1080C08FA0CF8C2F8148091F803C049
:1022F000BCF1480F07D100F1080C4FF0010808FAB3
:102300000CF8C2F81080401C0828CED35460BDE8F9
:10231000F0814FF6FF710180022181700421C170AC
:1023200070470246002093680B400BB1012000E08B
:10233000002070470146886880B27047024600203E
:10234000D3680B400BB1012000E00020704701462C
:10235000C86880B2704701617047416170470AB137
:10236000016100E041617047C16070474FF4803205
:102370000A43826181618261826982697047024693
:102380000020434B18684FF68073184040EA021053
:1023900008433F4B186070473E49C8617047F0B52D
:1023A0000A46002300240021002500F00046B6F173
:1023B000004F02D1364EF16901E0354E7168C0F32D
:1023C000034583B200F44016B6F5401F08D121F052
:1023D00070612F4E766826F070662D4F7E6012E099
:1023E00000F48016B6F5801F06D1032606FA05F420
:1023F000A14341F0706106E0460D360103FA06F68E
:10240000B14341F0706122B1460D360103FA06F680
:10241000314300F00046B6F1004F02D11C4EF1618D
:1024200001E01B4E7160F0BD30B500228B071C0F20
:102430000F2303FA04F2164B08338C1053F82430A0
:102440009343134C08348D1044F8253023468C10E8
:1024500053F824308C07240F00FA04F423430C4C67
:1024600008348D1044F8253030BD0A49DC3108604D
:102470007047000000080140000C014000100140BE
:102480000014014000180140001C014000200140E0
:10249000000001400000204210B50446FB48844281
:1024A00009D10121880300F083FB00214FF4804013
:1024B00000F07EFB32E0F648844209D10121480455
:1024C00000F083FB00214FF4003000F07EFB25E09C
:1024D000F048844209D10121880400F076FB0021F4
:1024E0004FF4802000F071FB18E0EB48844209D1E2
:1024F0000121C80400F069FB00214FF4002000F026
:1025000064FB0BE0E548844208D10121080500F096
:102510005CFB00214FF4801000F057FB10BD2DE94B
:10252000F04786B005460E460024A24600BFA146ED
:102530000027B08900B100BF2F462C8A4CF6FF70EF
:102540000440F08804432C82AC894EF6F31004401A
:10255000B08831890843718908430443AC81AC8A4F
:102560004FF6FF400440B0890443AC8201A800F05C
:1025700098FAC648874202D1DDF810A001E0DDF8E4
:102580000CA0A88900F4004040B10AEBCA0000EB9F
:102590000A1031684900B0FBF1F807E00AEBCA0005
:1025A00000EB0A1031688900B0FBF1F86420B8FB39
:1025B000F0F004012009642101FB1089A88900F4CE
:1025C000004040B1322000EBC900B0FBF1F000F058
:1025D0000700044308E0322000EB09106421B0FB3F
:1025E000F1F000F00F0004432C8106B0BDE8F08745
:1025F0004FF41651016000218180C18001810C21BE
:10260000418100218181704710B502460020108A67
:102610004FF2FF0318400B884C8823438C882343D8
:10262000CC8823431843108210BD002101804180D3
:102630008180C180704721B1828942F40052828139
:1026400004E082894DF6FF731A4082817047F0B52D
:102650000346002400260025002040F66A17B942F0
:1026600000D100BF1846C1F3421401F01F06012734
:1026700007FA06F5012C01D10C3004E0022C01D13F
:10268000103000E014301AB107682F43076002E0F1
:102690000768AF430760F0BD1AB1838A0B4383829A
:1026A00002E0838A8B4383827047028A4FF6F0737D
:1026B0001A400282028A0A430282704782894FF2DC
:1026C000FF731A40828182890A438281704721B157
:1026D000828942F00202828104E082894FF6FD7312
:1026E0001A4082817047028A4FF6DF731A400282D5
:1026F000028A0A430282704721B1028A42F4804270
:10270000028204E0028A4BF6FF731A40028270478D
:10271000C1F308028280704701468888C0F3080030
:102720007047818941F0010181817047028BD2B2EB
:102730000283028B42EA012202837047028B02F479
:102740007F420283028B0A430283704721B1828A4F
:1027500042F02002828204E0828A4FF6DF731A4040
:102760008282704721B1828A42F01002828204E0A4
:10277000828A4FF6EF731A408282704721B1828AB3
:1027800042F00802828204E0828A4FF6F7731A4010
:102790008282704721B1828942F40042828103E043
:1027A0008289C2F30E028281704721B1828A42F48B
:1027B0000062828204E0828A4FF2FF731A408282B2
:1027C0007047828A4FF6FB731A408282828A0A43DC
:1027D0008282704721B1828A42F00202828204E042
:1027E000828A4FF6FD731A408282704702460020AB
:1027F000B1F5007F00D100BF13880B400BB1012061
:1028000000E00020704701F40072B2F5007F00D1B3
:1028100000BFCA430280704770B5024600240023FF
:102820000025002040F66A16B14200D100BFC1F376
:10283000421501F01F03012606FA03F3012D02D110
:102840009689334006E0022D02D1168A334001E01A
:10285000968A33400C12012606FA04F41688344096
:1028600013B10CB1012000E0002070BD10B50022B2
:10287000002340F66A14A14200D100BF0A120124CD
:102880009440A3B2DC43048010BD00000038014036
:102890000044004000480040004C00400050004010
:1028A000DF48006840F00100DD49086008464068E4
:1028B000DC490840DA49486008460068DA490840BF
:1028C000D74908600846006820F480200860084660
:1028D000406820F4FE0048604FF41F008860704795
:1028E000CF49096821F48031CD4A11601146096849
:1028F00021F480211160B0F5803F03D0B0F5802F26
:102900000ED106E0C649096841F48031C44A11601D
:1029100007E0C349096841F4A021C14A116000E001
:1029200000BF00BF704710B5014600220023002001
:102930004A11012A02D1BA4C236806E0022A02D1C8
:10294000B74C236A01E0B64C636A01F01F02012410
:1029500094401C400CB1012000E0002010BD38B5AF
:10296000002000900024002500BF3120FFF7DBFF8E
:1029700005460098401C00900098B0F5A06F01D06B
:10298000002DF2D03120FFF7CEFF08B1012400E086
:102990000024204638BD01460020A14A106820F0DE
:1029A000F80040EAC10010607047A0490860704715
:1029B000024600209A4B586820F47C1042EA01033A
:1029C0001843974B5860704798490866704701460E
:1029D0000020934A506820F003000843506070477D
:1029E0008F48406800F00C007047014600208C4A78
:1029F000506820F0F0000843506070470146002006
:102A0000874A506820F4E0600843506070470146F0
:102A10000020834A506820F4605040EAC1005060B2
:102A2000704729B17E4A527A02437D4B5A7204E0C4
:102A30007B4A527A82437A4B5A7270477B49D8312B
:102A40000860704701460020754A506820F44040F5
:102A50000843506070470021714A20321170704A5B
:102A600082F82010012802D004280AD104E00121B4
:102A70006B4A2032117005E00521694A203211703D
:102A800000E000BF00BF70476949086070476449B3
:102A9000096A0143624A1162704765494439086016
:102AA000704730B500210022002400235C4D6D6882
:102AB00005F00C0121B1042905D0082923D105E036
:102AC0005C4D056022E05B4D05601FE0544D6D6874
:102AD00005F47012524D6D6805F48034022505EB43
:102AE00092421CB9544D554305600BE04C4D6D6846
:102AF00005F400351DB1504D5543056002E04D4DC4
:102B00005543056002E04B4D056000BF00BF444DDA
:102B10006D6805F0F0010909484D6B5C0568DD4002
:102B200045603F4D6D6805F4E061090A434D6B5CFB
:102B30004568DD4085603A4D6D6805F46051C90A0D
:102B40003E4D6B5C4568DD40C560354D6D6805F4F4
:102B50004041890B3A4D6B5CC568B5FBF3F50561E7
:102B600030BD29B12E4A526902432D4B5A6104E00F
:102B70002B4A526982432A4B5A61704729B1284A2D
:102B800092690243264B9A6104E0254A9269824386
:102B9000234B9A61704729B1214AD2690243204BE5
:102BA000DA6104E01E4AD26982431D4BDA61704744
:102BB00029B11B4AD2680243194BDA6004E0184A73
:102BC000D2688243164BDA60704729B1144A126901
:102BD0000243134B1A6104E0114A12698243104BFD
:102BE0001A61704712494039086070470F49C8643C
:102BF00070470B49C87170470948406A40F08070BF
:102C000007494862704701460020054A92680A4019
:102C10000AB1012000E00020704701498872704726
:102C2000001002400000FFF8FFFFF6FE00004242E5
:102C30008004424200127A0000093D005200002048
:102C40006200002010B50446FE48844208D10121EC
:102C5000C014FFF7ADFF0021E014FFF7A9FFC4E0A7
:102C6000B4F1804F08D101210846FFF7AEFF0021E3
:102C70000120FFF7AAFFB8E0F348844208D1012100
:102C80000220FFF7A2FF00210220FFF79EFFACE029
:102C9000EE48844208D101210420FFF796FF00216D
:102CA0000420FFF792FFA0E0E948844208D1012107
:102CB0000820FFF78AFF00210820FFF786FF94E035
:102CC000E448844208D101211020FFF77EFF002153
:102CD0001020FFF77AFF88E0DF48844208D1012105
:102CE0002020FFF772FF00212020FFF76EFF7CE01D
:102CF000DA48844208D101214014FFF759FF00212E
:102D00006014FFF755FF70E0D548844209D10121D6
:102D1000C804FFF74DFF00214FF40020FFF748FFE4
:102D200063E0D048844209D101210805FFF740FF44
:102D300000214FF48010FFF73BFF56E0CA48844261
:102D400009D101214805FFF733FF00214FF400109E
:102D5000FFF72EFF49E0C548844208D101214020F9
:102D6000FFF733FF00214020FFF72FFF3DE0C04871
:102D7000844208D101218020FFF727FF0021802015
:102D8000FFF723FF31E0BB48844208D101218015C1
:102D9000FFF71BFF0021A015FFF717FF25E0B6483E
:102DA000844209D101210804FFF702FF00214FF4FA
:102DB0008030FFF7FDFE18E0B048844209D10121C0
:102DC0004804FFF7F5FE00214FF40030FFF7F0FE56
:102DD0000BE0AB48844208D101218804FFF7E8FEEC
:102DE00000214FF48020FFF7E3FE10BD002202888F
:102DF000944B98420ED0994B98420BD0B0F1804F33
:102E000008D0914B984205D0904B984202D0904BFD
:102E1000984204D14FF68F731A404B881A438D4B5A
:102E2000984207D08C4B984204D04FF6FF431A408B
:102E3000CB881A4302808B8883850B880385814B5E
:102E400098420BD0854B984208D08B4B984205D0C6
:102E50008A4B984202D08A4B984201D10B7A038662
:102E600001238382704770B5002400220023058C63
:102E70004FF6FE7635400584028C8388048B4FF62E
:102E80008F752C40B51E2C400D882C43751E2A4092
:102E90000D892A434D882A436A4DA8420BD06F4DB5
:102EA000A84208D0744DA84205D0744DA84202D063
:102EB000734DA84213D14FF6F7752A404D892A4326
:102EC0004FF6FB752A408D882A434FF6FF652B404D
:102ED0004FF6FF552B408D892B43CD892B438380A3
:102EE0000483CD888586028470BD70B500240022DD
:102EF0000023058C4FF6EF7635400584028C8388DD
:102F0000048B48F6FF752C404FF6FF452C400D888A
:102F10004FF6FF7606EA05252C434FF6DF752A406B
:102F20000D8906EA05152A434D8806EA05152A4348
:102F3000444DA84202D0494DA8421DD14FF67F759D
:102F40002A404D894FF6FF7606EA05152A434FF6CB
:102F5000BF752A408D8806EA05152A434FF6FF35CE
:102F60002B404FF2FF752B408D8906EA85052B43D8
:102F7000CD8906EA85052B4383800483CD880587A8
:102F8000028470BD70B5002400220023058C4FF62A
:102F9000FF6635400584028C8388848B4FF68F75DD
:102FA0002C404FF6FC752C400D882C434FF6FF55F6
:102FB0002A400D894FF6FF7606EA05252A434D88FB
:102FC00006EA05252A431F4DA84202D0234DA842F8
:102FD0001DD14FF2FF752A404D894FF6FF7606EA64
:102FE00005252A434FF6FF352A408D8806EA052538
:102FF0002A434EF6FF752B404DF6FF752B408D8909
:1030000006EA05152B43CD8906EA05152B43838077
:103010008483CD888587028470BD70B5002200232B
:103020000024058C4EF6FF7635400584038C848899
:10303000828B48F6FF752A404FF6FF452A400D88DF
:1030400020E00000002C0140000400400008004087
:10305000000C00400010004000140040003401400B
:10306000004C014000500140005401400018004055
:10307000001C00400020004000400140004401408E
:10308000004801404FF6FF7606EA05252A434DF633
:10309000FF752B400D8906EA05352B434D8806EA5E
:1030A00005352B43FA4DA84202D0FA4DA84208D16B
:1030B0004BF6FF752C408D894FF6FF7606EA851595
:1030C0002C4384808283CD88A0F84050038470BD57
:1030D000828B4FF2FF331A408283828B4FF6FF734D
:1030E00003EA01231A4382837047F0B50C46154664
:1030F000002200210026078C4EF6FF7C07EA0C0711
:103100000784828B018C4FF6FF7707EA043640F67E
:10311000FF473A404FF6FF7707EA05273A434FF655
:10312000FF7707EA03373A43D94FB8420ED0D94F59
:10313000B8420BD0B0F1804F08D0D74FB84205D07D
:10314000D64FB84202D0D64FB84206D14DF6FF77DF
:10315000394046F48057394305E047F6FF57394078
:1031600044F48057394382830184F0BD828B4FF64B
:10317000F3731A408283828B0A4382837047F0B5CF
:103180000C461546002200210026078C4FF6FF6CE6
:1031900007EA0C070784828B018C4FF6FF7707EA5A
:1031A00004264FF60C773A404FF6FF7707EA0317ED
:1031B0002F433A43B64FB8420ED0B64FB8420BD069
:1031C000B0F1804F08D0B44FB84205D0B34FB842E9
:1031D00002D0B34FB84206D14FF6FF57394046F4FC
:1031E0008077394305E04FF2FF57394044F4807748
:1031F000394382830184F0BD028B4FF2FF331A40C2
:103200000283028B4FF6FF7303EA01231A43028302
:103210007047F0B50C461546002200210026078CA9
:103220004FF6EF7C07EA0C070784028B018C4FF600
:10323000FF7707EA041640F6FF473A404FF6FF775C
:1032400007EA03373A434FF6FF7707EA05273A4381
:103250008F4FB8420ED08F4FB8420BD0B0F1804F95
:1032600008D08D4FB84205D08C4FB84202D08C4F59
:10327000B84206D14FF6DF77394046F010073943A0
:1032800005E04FF65F77394044F010073943028379
:103290000184F0BD028B4FF6F3731A400283028B58
:1032A0000A4302837047F0B50C4615460022002100
:1032B000068C4FF6FE773E400684028B018C4FF65B
:1032C0000C7632407E1C06EA03162E433243704EC3
:1032D000B0420ED06F4EB0420BD0B0F1804F08D04C
:1032E0006D4EB04205D06D4EB04202D06C4EB04231
:1032F00006D14FF6FD76314044F00106314305E03A
:103300004FF6F576314044F00106314302830184E3
:10331000F0BD70B505460C465D4885420ED05D484F
:1033200085420BD0B5F1804F08D05B48854205D06F
:103330005A48854202D05A48854200D100E000BF79
:10334000208850B92389A28861882846FFF7ABFFFF
:10335000E1882846FFF79EFF25E0208804280AD14F
:103360002389A28861882846FFF753FFE188284611
:10337000FFF742FF17E0208808280AD12389A28896
:1033800061882846FFF7FBFEE1882846FFF7EEFE3E
:1033900009E02389A28861882846FFF7A6FEE18814
:1033A0002846FFF795FE70BD2DE9F04105460C4615
:1033B00000260127608808B9022600E00026A088C0
:1033C000012801D1022700E001272088A0B9238924
:1033D000A28861882846FFF766FFE1882846FFF744
:1033E00059FF23893A4631462846FFF712FFE18804
:1033F0002846FFF701FF13E02389A2886188284649
:10340000FFF707FFE1882846FFF7F6FE23893A46D3
:1034100031462846FFF747FFE1882846FFF73AFF85
:10342000BDE8F0810A884B881A438B881A43CB8801
:103430001A430B891A434B891A438B891A43A0F804
:10344000442070474FF6FF71818000210180C180C8
:103450004180017270470021018041808180C180DC
:10346000018141818181C1817047002101804180BA
:10347000012181800021C1800181704700210180EC
:1034800041808180C180018141818181704700003C
:10349000002C0140003401400004004000080040BE
:1034A000000C004021B1028842F00102028004E0D9
:1034B00002884FF6FE731A400280704731B1B0F8AF
:1034C000442042F40042A0F8442005E0B0F8442033
:1034D000C2F30E02A0F8442070471AB183890B434F
:1034E000838102E083898B438381704781827047A7
:1034F00041EA0203A0F8483070471AB183890B43B0
:10350000838102E083898B438381704701894FF671
:10351000F8721140018170470A46002101894FF677
:103520008F73194011430181704730B504460D4631
:1035300029462046FFF7F0FF208940F00700208150
:1035400030BD2DE9F04104460D4616461F46602D5C
:1035500006D13B46012231462046FFF75AFE05E0E0
:103560003B46012231462046FFF79DFE2946204674
:10357000FFF7D2FF208940F007002081BDE8F081ED
:1035800030B50C4600210189C9B24FF6FF7505EA36
:103590000325154325432943018130BD2DE9F04121
:1035A00005460E4617469846002443463A4631469D
:1035B0002846FFF7E5FF2C894FF6F870044044F0E9
:1035C00007044FF68F70044044F070042C81BDE86E
:1035D000F081F0B504460D4616461F463B4632467E
:1035E00029462046FFF7CCFF208940F48040208107
:1035F000F0BD0185828270470A46002101884FF69E
:103600008F731940114301807047F0B50C46154681
:103610001E460021002200230189028B038C4FF6F5
:10362000F877394021434FF6FC473A4040F2011702
:103630003A434FF6DD773B404FF6FF7707EA061730
:103640002F433B43018102830384F0BD0A460021DE
:10365000018B4FF68F7319401143018370470A465F
:103660000021018B48F6FF7319404FF6FF7303EA00
:1036700002231943018370470A460021818B4FF6CC
:103680008F7319401143818370470A460021818B53
:1036900048F6FF7319404FF6FF7303EA02231943FC
:1036A0008183704721B1028842F08002028004E0E9
:1036B00002884FF67F731A400280704721B18288DA
:1036C00042F00402828004E082884FF6FB731A40C5
:1036D0008280704721B1828842F00802828004E033
:1036E00082884FF6F7731A408280704721B1828832
:1036F00042F00102828004E082884FF6FE731A4095
:10370000828070470A460021018B4FF6F7731940FB
:103710001143018370470A460021018B4FF2FF736A
:1037200019404FF6FF7303EA0223194301837047E0
:103730000A460021818B4FF6F773194011438183AC
:1037400070470A460021818B4FF2FF7319404FF6F4
:10375000FF7303EA02231943818370470A4600215D
:10376000018B4FF6FB7319401143018370470A46E2
:103770000021018B4FF6FF3319404FF6FF7303EA28
:1037800002231943018370470A460021818B4FF6BB
:10379000FB7319401143818370470A460021818BD6
:1037A0004FF6FF3319404FF6FF7303EA0223194324
:1037B000818370470A460021018B4FF67F731940C1
:1037C0001143018370470A460021018BC1F30E01AA
:1037D0004FF6FF7303EA02231943018370470A4639
:1037E0000021818B4FF67F7319401143818370470D
:1037F0000A460021818BC1F30E014FF6FF7303EAE5
:1038000002231943818370470A460021018C4FF639
:10381000FD7319401143018470470A460021018C51
:103820004FF6F77319401143018470470A4600218F
:10383000018C4FF6DF7319404FF6FF7303EA021352
:103840001943018470470A460021018C4FF67F73AB
:1038500019404FF6FF7303EA0213194301847047BE
:103860000A460021018C4FF6FF5319404FF6FF73B3
:1038700003EA02231943018470470A460021018CA0
:103880004FF2FF7319404FF6FF7303EA0223194307
:10389000018470470A460021018C4DF6FF731940E0
:1038A0004FF6FF7303EA023319430184704730B5C2
:1038B000002301248C40A3B2048C9C430484048C18
:1038C00002FA01F5ADB22C43048430BD30B50023BB
:1038D00004248C40A3B2048C9C430484048C02FA1C
:1038E00001F5ADB22C43048430BD70B50346002011
:1038F00000241846183001258D40ACB21D8CA5431C
:103900001D8409B1082909D100EB6100056825F083
:10391000700505600568154305600EE00D1FC5F3D1
:103920004E052844056825F4E045056005684FF616
:10393000FF7606EA02263543056070BD21B1028894
:1039400042F00202028004E002884FF6FD731A4042
:103950000280704721B1028842F00402028004E034
:1039600002884FF6FB731A400280704721B18288AB
:1039700042F08002828004E082884FF67F731A4012
:103980008280704702884FF6F7731A4002800288DF
:103990000A430280704782884FF68F731A408280F4
:1039A00082880A438280704702894FF6F8731A4072
:1039B000028102890A430281704702894FF67F73B0
:1039C0001A40028102890A4302817047818470474C
:1039D000818570478186704701877047818770476E
:1039E000A0F84010704702884FF6FF431A4002804B
:1039F00002880A43028070470146888E704701465C
:103A0000088F70470146888F70470146B1F8400023
:103A100070470146888C70470146088D7047024602
:103A20000020138A0B400BB1012000E000207047FA
:103A3000CA430282704730B50246002000230024AA
:103A4000158A05EA0103958905EA010413B10CB151
:103A5000012000E0002030BDCA4302827047704759
:103A60000FB4044910B503AA029800F0D3F810BCB3
:103A70005DF814FB4C0000202DE9F0410E46044691
:103A8000002020622046E168884730B3252805D011
:103A9000D4E901219047206A401CF2E7E168204602
:103AA00000278847050018D0A5F14100192802D841
:103AB00020354FF400673246294620462760FCF740
:103AC0004FFB40B1012804D0F61D26F0070608364A
:103AD000D8E7361DD6E72846DAE7206ABDE8F08148
:103AE0002DE9F0410646002410687529314616A5D7
:103AF00010D0AFF30080002802DA404213A507E09F
:103B000031688A0701D512A502E0490704D511A53D
:103B1000012401E0AFF3008000210A2206F124070E
:103B200009E0B0FBF2FCB0FBF2F302FB1C0030300A
:103B300078541846491C0028F3D123462A463046BB
:103B4000BDE8F04100F00CB8000000002D000000BE
:103B50002B0000002000000070477047704770473E
:103B60002DE9F0470D4699469246044600F1240897
:103B70000168880604D5E06921F01001216000E0A9
:103B80000120A84201DD471B00E00027A1697A1946
:103B900002EB0900081AA0612078C00602D4204672
:103BA000AFF30080002608E0D4E901211AF80600EE
:103BB0009047206A401C761C20624E45F4DB20783A
:103BC000C0060AD52046AFF3008006E0D4E9012103
:103BD00030209047206A401C2062381EA7F1010760
:103BE000F4DC07E0D4E9012118F805009047206AC9
:103BF000401C2062281EA5F10105F3DC2046AFF32E
:103C000000802078000602D50220BDE8F087012060
:103C1000FBE70000074B70B50D467B4400F011F840
:103C20000446284600F020F810B14FF0FF3070BD78
:103C3000204670BDC9E2FFFF01694A1C0261087895
:103C4000704700B58FB0CDE90131002105910549DC
:103C50007944CDE9031011466846FFF70DFF0FB018
:103C600000BD0000E5FFFFFF007B00F08000704713
:103C7000754600F029F8AE4605006946534620F027
:103C80000700854618B020B5FEF7D8F9BDE82040FA
:103C90004FF000064FF000074FF000084FF0000B08
:103CA00021F00701AC46ACE8C009ACE8C009ACE8BB
:103CB000C009ACE8C0098D4670470446AFF30080E8
:103CC0002046FCF75FFA000000487047F80100202A
:103CD00010B591EA030F48BF83F0004300F1E6817D
:103CE000841A71EB030C05D2121943EB0C03001B71
:103CF00061EB0C01DFF824E14FEA1154A4EB135CF3
:103D00001EEA430F18BF9EEA445F73D023EA0E03F6
:103D1000DCF1200E21EA045143F4801332D322FA5D
:103D20000CFE10EB0E0023FA0CFE41EB0E01CCF161
:103D3000200E03FA0EFE10EB0E0051F10001B1F55A
:103D4000801FCCF1200E32D201EB045112FA0EF298
:103D5000BDE8104058BF7047401C38BF5FEA4202C0
:103D600018BF7047002814BF20F0010041F1000186
:103D70004FEA410313F5001F38BF7047A1F1C0415E
:103D800000F086B9012A43EB0302ACF1200CDCF110
:103D90001F0E32BF4FF0000E23FA0CF310EB03009E
:103DA00041EB0451B4EB115FD0D0A1EB045101F50C
:103DB000801149085FEA300001EB04510ED350F145
:103DC000000038BF12FA0EFE08D1BDE81040C9E766
:103DD000401C38BF5FEA4202CAD1C3E7BDE81040C9
:103DE0004FEA410313F5001F38BF7047A1F1C041EE
:103DF00000F04EB99EEA445F08D011EA5E0FBDE8BC
:103E0000104004BF01F0004100207047BDE81040A1
:103E100070B500F0EFF800BF64FBBE3E0000E0FFAD
:103E20004FEA1153A3F58063D3F11E03A8BFD3F16A
:103E3000200C08DB4FF0004242EAC12252EA505205
:103E400032FA03F0704709420BD4102BC4BF002094
:103E5000704703F5787CBCF1FF3F05D04FF0FF3091
:103E600070474FF00000704770B500F0C3F800BF16
:103E70004992248000207047F0E7B0FA80F310FAEE
:103E800003F10AD0C3F11D0303F580634FEA4150EB
:103E90004FEA035202EBD12170474FF00000704708
:103EA000DFF848C170B51CEA111E1EBF1CEA1315CD
:103EB0009EEA0C0F95EA0C0F00F06F8081EA030474
:103EC00023EA4C134EEAD47E21EA4C1141F48011CE
:103ED00043F48013AE44A1FB024CA0FB0365AEF19A
:103EE0007F7E361955EB0C05A1FB034C4CF100030A
:103EF000A0FB021C16EB0C06654153F100030942BE
:103F000018BF46F0010613F4007F0BD14FEA0331CE
:103F10004FEA0530340341EA155140EA16506FF07C
:103F200003020AE04FEAC3214FEAC520F40241EA46
:103F3000555140EA56506FF0020202EB2E4201EB5F
:103F4000025585EACE710AD05FEA440C18BF24F00E
:103F5000004450F1000041F1000120EAD47040F229
:103F6000FE7C624500D270BDA84214BF4FF0804471
:103F70004FF04044002E08BF0024BEF1806FA8BF60
:103F8000A1F1C041BDE8704080F282804FF0000096
:103F900001F1C04101F0004170479EEA0C0F0CEAAC
:103FA000131518BF95EA0C0F06D04FF0000081EAF8
:103FB000030E0EF0004170BD00F01CF88900013EB8
:103FC00000F007B800F009B84FEA430C5FEA5C5C08
:103FD00008D081EA030100F05BB84FEA410C5FEAC8
:103FE0005C5CF6D14FF00000014970470000FF070C
:103FF0000000F87F0EF1020E2EF0030E5EF8046B47
:10400000364205D4012A43EB030515F5001F12D8EB
:10401000012841EB010C1CF5001F0CD80ED14FEA12
:10402000D17C15F5001F0CEB4C0C0CF1020C08BFF9
:104030004CEBD37C04E04FF0080C01E04FEAD37C5A
:104040000CEB4C0526FA05F606F00706B6F1040C53
:1040500006D20EEB860CBDE870404CF0010C6047B8
:10406000DFE80CF0090B02024FF000414FF00000B6
:10407000A1F5002170BD19461046012851EB01043D
:1040800018BFD4F5001484BF002001F0004170BDBA
:104090000808A0F500114FEA3101704710B591EA08
:1040A000030F48BF83F000433FF51AAE841A71EB4B
:1040B000030C07D212198CF0004C43EB0C03001BCD
:1040C00061EB0C01DFF8A4E14FEA1154A4EB135C9F
:1040D0001EEA430F18BF9EEA445F00F0B08023EA57
:1040E0006E03524221EA0451C3EB6E0338BF5B1EDC
:1040F000DCF1200E25D322FA0CFE10EB0E0043FA61
:104100000CFE41EB0E01CCF1200E03FA0EFE10EB7B
:104110000E0051F10001CCF1200E29D412FA0EF25A
:1041200001EB0451BDE8104058BF7047401C1CBF54
:10413000B2F1004F704700280CBF491C20F001006D
:10414000704712EB020E43EB030218BF4FF0010E53
:104150004EEA4202ACF1200CDCF11E0E54D943FAB7
:104160000CFE10EB0E0051F1FF31CCF11E0ED5D537
:104170000EF1010E12FA0EFE404141EB010101EB7E
:10418000445C5FEA5C5C10D910EBDE7001EB04511B
:1041900038BFBEF1004FBDE8104018BF704700287F
:1041A0000CBF491C20F00100704730D24FEAD42CDC
:1041B00011F5001124F400641BD0B1FA81F20B3A1E
:1041C000A41AA41ED2F12003914030FA03F319433C
:1041D000904001EBCC71002C01EB0451BDE8104084
:1041E000A8BF704701F1C0414FF0000001F000414D
:1041F0007047B0FA80F310FA03F100D110BDE41A51
:10420000173C4805C90AE4E701EB045110BD491009
:1042100001EB0451BDE810404FEA300002E04FF0DE
:10422000000170474A0008BF0042F8D0B2F5001FF5
:1042300028BF704701F000414FF0000070479EEA30
:10424000445F07D011EA5E0FBDE8104004BF0021B3
:1042500000207047BDE8104070B5FFF7CBFE00BFEF
:1042600040DFF63E83F00041104670470000E0FF5B
:10427000F808080808080808080808080808F8C026
:104280001F101010101010101010101010101F031D
:10429000F808E8E808080808080808080808F8C046
:1042A0001F101717101010101010101010101F03EF
:1042B000F808E8E808E8E808080808080808F8C066
:1042C0001F101717101717101010101010101F03C1
:1042D000F808E8E808E8E808E8E808080808F8C086
:1042E0001F101717101717101717101010101F0393
:1042F000F808E8E808E8E808E8E808E8E808F8C0A6
:104300001F101717101717101717101717101F0364
:1043100000000000204080FC8850200000000000C9
:10432000000000000201001F08050200000000005C
:1043300000000000008000C000E000F000F8000075
:10434000000E000F000F000F000F000F000F000005
:10435000000000000000000C142444FC4424140C51
:1043600000000000000000000000001F000000002E
:10437000002018C744444444FC444444440400001E
:104380000404040704040404FF04040404040400F3
:10439000000000FE2222222222222222FE00000011
:1043A0008040300F02020202020242827F000000BF
:1043B000000000FE82828282828282FE0000000073
:1043C000000000FF40404040404040FF000000002F
:1043D000040444C44F4444C424242FB424040400DB
:1043E00040442424150C04FE040C152424444000ED
:1043F0000000F8494A4C48F8484C4A49F800000087
:1044000010101312121212FF1212121213101000B7
:10441000404042CC0000FF4949C949497F80000023
:104420000040201F20405F48444041424558400022
:1044300000007C40404040FF40404040FC00000005
:10444000007C40404040407F4040404040FC0000F5
:10445000404042CC0000FC24A4242222A36200009D
:104460000040201F205847504845424548504000D2
:104470000000FE0202F2121212F20202FE0000001E
:1044800000007F2020272424242720207F000000F4
:1044900004244484649C40300FC808082818000095
:1044A00010080601824C20180601061820408000E2
:1044B000404042CC0000FC040200FC0404FC00006C
:1044C0000040201F20404F4442407F424443400070
:1044D00000080828C80808FF0808886808080000BD
:1044E00021211111090503FF0305091111212100E3
:1044F0004262524AC6425262C200F80000FF000007
:1045000040C444447F24242420000F40807F0000C6
:104510001060028C008888FF888800FE2222FE003E
:1045200004047E01001F0808089F601F42827F006C
:1045300004E4242464A4243F24A4642424E4040084
:1045400000FF00080909097F09090948807F000068
:104550001010D0FF901000FE020202FE00000000CA
:10456000040300FF0083601F0000003F404078000C
:104570000000F888888888FF88888888F80000000C
:1045800000001F080808087F888888889F80F0003E
:104590000202FE9292FE0202FC04040404FC0000EB
:1045A00008180F0804FF0480631901010933C000D3
:1045B0000010608000FF000000FF0000C03000001D
:1045C00040404043407F4040407F424140404000A7
:1045D000101010FF109008888888FF8888880800CD
:1045E0000444827F01808040432C10284681800053
:1045F0000010101010D030FF30D0121C101000002E
:1046000010080402010000FF00000102040810006D
:1046100040301196909091969090981413503000DD
:10462000040404040444847E060504040404040011
:1046300000FE225A86100C242425262424140C0063
:1046400000FF0408078041310F01013F4141710023
:104650000484E45C44C42010E82724E4342CE00003
:1046600002017F10103F80601F09093F49897F00C8
:10467000100C4444444445C64444444444140C008F
:104680008040201E2040407F444444444440400039
:10469000002010884424242424242444881020004A
:1046A00000000000000201191901020000000000D2
:1046B00000000080402020202020204080000000BA
:1046C00000000000000201191901020000000000B2
:1046D00000000000000000000000000000000000DA
:1046E0000000000000020119190102000000000092
:1046F00000000000000000000000000000000000BA
:104700000000000000000018180000000000000079
:104710000000000000000000000000000000000099
:104720000000000000000000000000000000000089
:10473000060A1222FE22120A06008000E000F8009B
:10474000000000001F0018001E001F001F001F00B7
:1047500000004060F0F060400000F0F00000000059
:10476000000000001F1F0000040C1F1F0C040000AD
:104770000000003C549414941494543C0000000035
:1047800000000000001F1013101F000000000000B8
:1047900000FE0222DA0620D808090E088828180030
:1047A00000FF08100807003F4444424140780000E1
:1047B00000F808FF08F8003EAA6A3E2AAA3E000058
:1047C0002063211F11394829098DFB09082C580045
:1047D000008060F807001CE0010600E01E000000F9
:1047E000010000FF00804020130C13204080800057
:1047F0000000E0202020203C040810204080000021
:10480000000007040404043C201008040201000016
:1048100000FE424242FE0042A29E82A2C2BE0000B0
:10482000806F080828CF00002FC8080828CF000094
:1048300000FC444444FC0000FE22222222FE000030
:10484000000F0404048F40300F020242827F0000F8
:10485000807000FF201004040404FC04040404001D
:10486000806018070830000040807F0000000000D2
:1048700080828282FE8282828282FE8282828000A6
:10488000008040300F0000000000FF00000000002A
:1048900000001011161010F010101413100000007A
:1048A0008181414121110D030D112141418181007F
:1048B000404042CC0040A09E8282829EA0202000E8
:1048C0000000003F908840432C1028464180800023
:1048D000001715D55557557D555755D51517000057
:1048E0004040407F555555555555557F40404000F7
:1048F00000FC848484FC001010101010FF101000C5
:10490000003F1010103F0000010640807F000000B3
:1049100020102CE7242400F01010FF1010F00000ED
:104920000101017F211100070202FF0202070000BE
:104930000000F888888888FF88888888F800000048
:1049400000001F080808087F888888889F80F0007A
:104950000000FE0282828282FA82828282820200C9
:1049600080601F40404040407F40404458404000ED
:104970001060028C004464544D46445464C40400E6
:1049800004047E0180403E0000FE00007E80E000C6
:1049900000E000FF10200888780F08E80808880069
:1049A000010000FF00100C834423180718628100E7
:1049B000201008F754545454545454F40404000080
:1049C000809090494D57252525554D458080800084
:1049D00000007C40404040FF40404040FC00000060
:1049E000007C40404040407F4040404040FC000050
:1049F0000000FE02020202020202020202020200A1
:104A000080601F00000000000000000000000000A7
:104A1000000022322AA6A2622111098101000000B1
:104A2000004222130B42827E02020A122346000039
:104A30002030AC63300088C8A8998E88A8C8880048
:104A400022672212128040300F00003F4040710068
:104A500000FE20203F2000FC24E4242223E200006A
:104A6000807F0101FF80601F804126182641800061
:104A70000010101010D030FF30D0101010100000B7
:104A800010080402090808FF0808090204081000B9
:104A90000404E4040FF40404F444CF444444040044
:104AA00040407D44447D4445447C44457C40400036
:104AB0000000C2B28282828282FE82828282800072
:104AC0000020201008040241807F00000000000048
:104AD0001060028C0000FE9292929292FE00000002
:104AE00004047E01407E42427E427E42427E40007D
:104AF0000000FC242424FC252624FC242424040077
:104B000040308F80844C55252525554C8080800071
:104B1000004042445840407F40405048C60000009A
:104B2000004044444444444444444444FF0000009E
:104B30000808E8292E28E80808C80C0BE80808002F
:104B40000000FF0949897F00000F40807F000000BE
:104B500000083000FF20202020FF2020222C2000F1
:104B600004040201FF8040300E010618204080003E
:104B7000000484844424548F142444848404000056
:104B8000413900003C4040424C4040700409310033
:104B900000040474545455565454547404040000CE
:104BA000848341211D05050505057D818185E3007F
:104BB0000000FC242424FC252624FC2424240400B6
:104BC00040308F80844C55252525554C80808000B1
:104BD00000084848484848FF4848484848080800EE
:104BE00000020202020202FF02022242221E000012
:104BF000404042CC00101010907F90101010100018
:104C00000040201F2048444241404041424C400067
:104C1000003E22E2223E00FE2222222222E2020066
:104C2000203F201F1111007F44444444444740006A
:104C3000040404F484D4A5A6A4D484F404040400D5
:104C400000FE0202123A1613121A3242827E00004D
:104C50000404E4040FF40404F444CF444444040082
:104C600040407D44447D4445447C44457C40400074
:104C70000000C2B28282828282FE828282828000B0
:104C80000020201008040241807F00000000000086
:104C900000083000FF20202020FF2020222C2000B0
:104CA00004040201FF8040300E01061820408000FD
:104CB000000484844424548F142444848404000015
:104CC000413900003C4040424C40407004093100F2
:104CD000004042445840407F40405048C6000000D9
:104CE000004044444444444444444444FF000000DD
:104CF0000808E8292E28E80808C80C0BE80808006E
:104D00000000FF0949897F00000F40807F000000FC
:104D10001010D0FF9014E4AFA4A4A4AFE4040000EA
:104D2000040300FF00894B2A1A0E1A2A4B888000C0
:104D3000101090909090901010FF1010111610000D
:104D4000002060203F10101000030C102040F800DD
:104D5000829A9693FA5252807E121212F11110002A
:104D6000000100FE93929392929292FE0300000043
:104D70008060F807000474545556545474040000BD
:104D80000000FF0003010545857D050505010300C1
:104D9000000000FC4444444546444444447C000034
:104DA0004020180700FC44444444444444FC0000B0
:104DB0004044C4444444401010FF101010F0000060
:104DC000103C131014B840300E014080403F0000EA
:104DD0000808080888780F08080808080808080064
:104DE00020104846414141417F41414141404000FE
:104DF000C8B88FE88888404848E85F48484840007D
:104E0000081808FF040400020B1222D20A06000050
:104E100008080808C8380F08080808080808080023
:104E200008040201FF41414141414141FF000000AE
:104E3000C8B88FE88888404848E85F48484840003C
:104E4000081808FF040400020B1222D20A06000010
:104E50008060F80704645CC4644400F800FF00004C
:104E60000000FF002062221F1212004F807F00000E
:104E70000008884828180FE80808080808080000F3
:104E800008080909090909FF0909090909080800A9
:104E90000000000000000000002F000000000700DC
:104EA000070000147F147F1400242A7F2A12006256
:104EB0006408132300364955225000000503000002
:104EC00000001C224100000041221C000014083E8A
:104ED00008140008083E0808000000A06000000850
:104EE00008080808000060600000002010080402A4
:104EF000003E5149453E0000427F40000042615162
:104F00004946002141454B31001814127F100027FB
:104F100045454539003C4A494930000171090503BE
:104F200000364949493600064949291E00003636EF
:104F30000000000056360000000814224100001452
:104F4000141414140000412214080002015109062F
:104F500000324959513E007C1211127C007F4949B0
:104F60004936003E41414122007F4141221C007FE1
:104F700049494941007F09090901003E4149497AEF
:104F8000007F0808087F0000417F41000020404169
:104F90003F01007F08142241007F40404040007FD5
:104FA000020C027F007F0408107F003E4141413E19
:104FB000007F09090906003E4151215E007F091961
:104FC00029460046494949310001017F0101003F5E
:104FD0004040403F001F2040201F003F4038403FDE
:104FE0000063140814630007087008070061514942
:104FF000454300007F41410000552A552A550000D5
:1050000041417F0000040201020400404040404052
:10501000000001020400002054545478007F4844EA
:10502000443800384444442000384444487F003821
:105030005454541800087E0901020018A4A4A47C4A
:10504000007F080404780000447D40000040808414
:105050007D00007F102844000000417F4000007C5C
:1050600004180478007C0804047800384444443868
:1050700000FC242424180018242418FC007C0804B4
:10508000040800485454542000043F444020003C8D
:105090004040207C001C2040201C003C4030403C14
:1050A000004428102844001CA0A0A07C00446454A4
:1050B0004C44141414141414FEFF02800280038064
:1050C000038002800280FEFF000000F80000000064
:1050D000000000333000000000100C06100C060029
:1050E000000000000000000040C07840C078400090
:1050F000043F04043F040400007088FC08300000F2
:10510000001820FF211E0000F008F000E018000049
:1051100000211C031E211E0000F008887000000002
:105120001E2123241927211010160E000000000054
:105130000000000000000000000000E01804020071
:10514000000000071820400000020418E0000000E2
:105150000040201807000000404080F080404000E0
:105160000202010F01020200000000F00000000036
:105170000101011F0101010000000000000000000A
:1051800080B070000000000000000000000000007F
:105190000001010101010101000000000000000008
:1051A00000303000000000000000000080601804A3
:1051B000006018060100000000E010080810E00080
:1051C000000F102020100F00001010F80000000049
:1051D0000020203F20200000007008080888700090
:1051E0000030282422213000003008888848300010
:1051F0000018202020110E000000C02010F8000030
:1052000000070424243F240000F8088888080800C8
:105210000019212020110E0000E0108888180000DD
:10522000000F112020110E0000380808C8380800AF
:105230000000003F0000000000708808088870002F
:10524000001C222121221C0000E010080810E000B0
:105250000000312222110F00000000C0C000000039
:10526000000000303000000000000080000000005E
:105270000000806000000000000080402010080056
:10528000000102040810200040404040404040001F
:1052900004040404040404000008102040800000FA
:1052A0000020100804020100007048080808F000FF
:1052B0000000003036010000C030C828E810E000CF
:1052C0000718272423140B000000C038E00000005A
:1052D000203C23020227382008F8888888700000C4
:1052E000203F202020110E00C03008080808380098
:1052F000071820202010080008F808080810E0000F
:10530000203F202020100F0008F88888E8081000AF
:10531000203F20202320180008F88888E808100083
:10532000203F200003000000C030080808380000BB
:1053300007182020221E020008F808000008F808BC
:10534000203F210101213F20000808F80808000043
:105350000020203F2020000000000808F808080076
:10536000C08080807F00000008F888C028180800EE
:10537000203F20012638200008F808000000000027
:10538000203F20202020300008F8F800F8F808001E
:10539000203F003F003F200008F830C00008F80818
:1053A000203F200007183F00E01008080810E00028
:1053B0000F10202020100F0008F808080808F0003F
:1053C000203F210101010000E01008080810E00062
:1053D0000F18242438504F0008F8888888887000F7
:1053E000203F2000030C3020007088080808380097
:1053F0000038202121221C00180808F8080818008D
:105400000000203F2000000008F808000008F8080D
:10541000001F202020201F000878880000C83808BE
:10542000000007380E010000F80800F80008F80036
:10543000033C0700073C03000818688080681808D0
:1054400020302C03032C30200838C800C83808004E
:105450000000203F2000000010080808C83808009D
:105460002038262120201800000000FE0202020041
:105470000000007F40404000000C30C000000000F1
:10548000000000010638C00000020202FE00000019
:10549000004040407F0000000000040202020400BF
:1054A00000000000000000000000000000000000FC
:1054B00080808080808080800002020400000000E4
:1054C00000000000000000000000808080800000DC
:1054D0000019242222223F2008F8008080000000CA
:1054E000003F112020110E0000000080808000008D
:1054F000000E112020201100000000808088F8009C
:10550000000E112020103F200000808080800000CD
:10551000001F222222221300008080F08888881831
:105520000020203F2020000000008080808080003C
:10553000006B94949493600008F8008080800000D1
:10554000203F210000203F200080989800000000AC
:105550000020203F202000000000008098980000DC
:1055600000C08080807F000008F8000080808000FC
:10557000203F24022D302000000808F80000000021
:105580000020203F202000008080808080808000DC
:10559000203F20003F20003F80800080808000006E
:1055A000203F210000203F200000808080800000FC
:1055B000001F202020201F0080800080800000002D
:1055C00080FFA12020110E0000000080808080005C
:1055D000000E112020A0FF8080808000808080004D
:1055E00020203F212000010000008080808080007A
:1055F0000033242424241900008080E080800000EF
:105600000000001F2020000080800000008080003B
:10561000001F202020103F2080808000008080809C
:1056200000010E300806010080800080008080802C
:105630000F300C030C300F00008080008080800051
:105640000020312E0E31200080808000008080807C
:1056500080818E701806010000808080808080002C
:105660000021302C2221300000000000807C02024A
:1056700000000000003F404000000000FF0000006C
:1056800000000000FF0000000002027C800000001B
:105690000040403F00000000000601010202040437
:1056A0000000000000000000000848FC4848080016
:1056B0000001017F01113E0040C62020FC20200097
:1056C000201F304C43424C0000F8F81818181818E6
:1056D0001818181818F8F80000FFFF000000000064
:1056E0000000000000FFFF0000FFFF0000000000BE
:1056F0000000000000FFFF00001F1F1818181818F6
:1057000018181818181F1F0000000000000000F8EB
:10571000F80000000000000000000000000000FF92
:10572000FF0000000000000000000000000000FF7B
:10573000FF00000000000000000000000000001F4B
:105740001F00000000000000001818181818181892
:105750001818181818F8F800008080808080808061
:105760008080808080FFFF0000FFFF0101010101B8
:105770000101010101010100001F1F18181818186C
:1057800018181818181818000018181818181818C9
:105790001818181818F8F800008080808080808021
:1057A0008080808080FFFF00000101010101010174
:1057B0000101010101FFFF0000181818181818183E
:1057C00018181818181F1F0000F8F8000000000033
:1057D0000000000000F8F80000FFFF80808080805B
:1057E0008080808080FFFF00000101010101010134
:1057F0000101010101FFFF000000000000000000A6
:1058000000000000001F1F0000F8F81818181818F2
:10581000181818181818180000FFFF808080808062
:1058200080808080808080000001010101010101F1
:105830000101010101FFFF000018181818181818BD
:1058400018181818181F1F0000F8F818181818183A
:10585000181818181818180000FFFF808080808022
:10586000808080808080800000FFFF0101010101B5
:105870000101010101FFFF00001F1F18181818186F
:1058800018181818181F1F000018181818181818BA
:105890001818181818F8F8000000000000000000A0
:1058A0000000000000FFFF000000000000000000FA
:1058B0000000000000FFFF000000000000000000EA
:1058C00000000000001F1F0000F8F8181818181832
:1058D0001818181818F8F80000FFFF8080808080E2
:1058E0008080808080FFFF0000FFFF010101010137
:1058F0000101010101FFFF00001F1F1818181818EF
:1059000018181818181F1F0000F8F8181818181879
:105910001818181818F8F80000FFFF8080808080A1
:105920008080808080FFFF000001010101010101F2
:105930000101010101FFFF000018181818181818BC
:1059400018181818181F1F000000000000000000A1
:10595000000000000000000000000000001F1F1FEA
:105960001F1F0000000000000000000000F0F0F029
:10597000F0F0000000000000000000000001010144
:105980000101000000000000000000000080C0F8DD
:105990003C0C000000C0707C5C48404040404040EF
:1059A0004040E0C0000000000000100C0603FFFFB4
:1059B00000000804C3613818000000FEFE0000105B
:1059C00020E3C18000000000000000000080EF071D
:1059D0000000F2E100000832E2E606070100008064
:1059E0000060C18380000000000000040607010081
:1059F00000001F1F101010101010101010101C1F8E
:105A0000080000030700000000000000000000FC88
:105A10007C080000000000202020202020202020E2
:105A2000A0E07020000000000000020202E27F07F8
:105A3000020202FA7F0200000000000000FCFC03EA
:105A400001000080C0800000000000101E27202000
:105A5000E0F0FF87800001010101010101FFFF016A
:105A600001010100000000000020101008040603DE
:105A7000010000010307020008081818381F0F0072
:105A80000000000000000000FFFF03FBFBFBFBFB2E
:105A9000FBFBFBFBFBFBFBFBFBFBFBFBFBFBFBFB56
:105AA000FBFBFBFBFB03FFFFFFFF00FFFFFFFFFF15
:105AB000FFFF6B0FE3F777B3B377F7E30F6BFFFFEE
:105AC000FFFFFFFFFF00FFFFFFFF00FFFFFFFFFFE4
:105AD000FFFFD6F0C7EFEECDCDEEEFC7F0D6FFFF5C
